{
  "address": "0xC9B89682296A127d31399F53a8CBB5e9D68c5c12",
  "abi": [
    {
      "inputs": [
        {
          "internalType": "uint256",
          "name": "initialSupply",
          "type": "uint256"
        }
      ],
      "stateMutability": "nonpayable",
      "type": "constructor"
    },
    {
      "inputs": [
        {
          "internalType": "address",
          "name": "spender",
          "type": "address"
        },
        {
          "internalType": "uint256",
          "name": "allowance",
          "type": "uint256"
        },
        {
          "internalType": "uint256",
          "name": "needed",
          "type": "uint256"
        }
      ],
      "name": "ERC20InsufficientAllowance",
      "type": "error"
    },
    {
      "inputs": [
        {
          "internalType": "address",
          "name": "sender",
          "type": "address"
        },
        {
          "internalType": "uint256",
          "name": "balance",
          "type": "uint256"
        },
        {
          "internalType": "uint256",
          "name": "needed",
          "type": "uint256"
        }
      ],
      "name": "ERC20InsufficientBalance",
      "type": "error"
    },
    {
      "inputs": [
        {
          "internalType": "address",
          "name": "approver",
          "type": "address"
        }
      ],
      "name": "ERC20InvalidApprover",
      "type": "error"
    },
    {
      "inputs": [
        {
          "internalType": "address",
          "name": "receiver",
          "type": "address"
        }
      ],
      "name": "ERC20InvalidReceiver",
      "type": "error"
    },
    {
      "inputs": [
        {
          "internalType": "address",
          "name": "sender",
          "type": "address"
        }
      ],
      "name": "ERC20InvalidSender",
      "type": "error"
    },
    {
      "inputs": [
        {
          "internalType": "address",
          "name": "spender",
          "type": "address"
        }
      ],
      "name": "ERC20InvalidSpender",
      "type": "error"
    },
    {
      "anonymous": false,
      "inputs": [
        {
          "indexed": true,
          "internalType": "address",
          "name": "owner",
          "type": "address"
        },
        {
          "indexed": true,
          "internalType": "address",
          "name": "spender",
          "type": "address"
        },
        {
          "indexed": false,
          "internalType": "uint256",
          "name": "value",
          "type": "uint256"
        }
      ],
      "name": "Approval",
      "type": "event"
    },
    {
      "anonymous": false,
      "inputs": [
        {
          "indexed": true,
          "internalType": "uint256",
          "name": "idPropiedad",
          "type": "uint256"
        },
        {
          "indexed": true,
          "internalType": "address",
          "name": "propietario",
          "type": "address"
        },
        {
          "indexed": false,
          "internalType": "uint256",
          "name": "valor",
          "type": "uint256"
        }
      ],
      "name": "PropiedadRegistrada",
      "type": "event"
    },
    {
      "anonymous": false,
      "inputs": [
        {
          "indexed": true,
          "internalType": "uint256",
          "name": "idPropiedad",
          "type": "uint256"
        },
        {
          "indexed": false,
          "internalType": "uint256",
          "name": "tokens",
          "type": "uint256"
        }
      ],
      "name": "PropiedadTokenizada",
      "type": "event"
    },
    {
      "anonymous": false,
      "inputs": [
        {
          "indexed": true,
          "internalType": "address",
          "name": "from",
          "type": "address"
        },
        {
          "indexed": true,
          "internalType": "address",
          "name": "to",
          "type": "address"
        },
        {
          "indexed": false,
          "internalType": "uint256",
          "name": "value",
          "type": "uint256"
        }
      ],
      "name": "Transfer",
      "type": "event"
    },
    {
      "inputs": [],
      "name": "TAMANO_TOKEN",
      "outputs": [
        {
          "internalType": "uint256",
          "name": "",
          "type": "uint256"
        }
      ],
      "stateMutability": "view",
      "type": "function"
    },
    {
      "inputs": [
        {
          "internalType": "address",
          "name": "owner",
          "type": "address"
        },
        {
          "internalType": "address",
          "name": "spender",
          "type": "address"
        }
      ],
      "name": "allowance",
      "outputs": [
        {
          "internalType": "uint256",
          "name": "",
          "type": "uint256"
        }
      ],
      "stateMutability": "view",
      "type": "function"
    },
    {
      "inputs": [
        {
          "internalType": "address",
          "name": "spender",
          "type": "address"
        },
        {
          "internalType": "uint256",
          "name": "value",
          "type": "uint256"
        }
      ],
      "name": "approve",
      "outputs": [
        {
          "internalType": "bool",
          "name": "",
          "type": "bool"
        }
      ],
      "stateMutability": "nonpayable",
      "type": "function"
    },
    {
      "inputs": [
        {
          "internalType": "address",
          "name": "account",
          "type": "address"
        }
      ],
      "name": "balanceOf",
      "outputs": [
        {
          "internalType": "uint256",
          "name": "",
          "type": "uint256"
        }
      ],
      "stateMutability": "view",
      "type": "function"
    },
    {
      "inputs": [
        {
          "internalType": "address",
          "name": "propietario",
          "type": "address"
        }
      ],
      "name": "consultarPropiedadesPorPropietario",
      "outputs": [
        {
          "internalType": "uint256[]",
          "name": "",
          "type": "uint256[]"
        }
      ],
      "stateMutability": "view",
      "type": "function"
    },
    {
      "inputs": [
        {
          "internalType": "uint256",
          "name": "valor",
          "type": "uint256"
        }
      ],
      "name": "consultarPropiedadesPorValor",
      "outputs": [
        {
          "internalType": "uint256[]",
          "name": "",
          "type": "uint256[]"
        }
      ],
      "stateMutability": "view",
      "type": "function"
    },
    {
      "inputs": [],
      "name": "contadorPropiedades",
      "outputs": [
        {
          "internalType": "uint256",
          "name": "",
          "type": "uint256"
        }
      ],
      "stateMutability": "view",
      "type": "function"
    },
    {
      "inputs": [],
      "name": "decimals",
      "outputs": [
        {
          "internalType": "uint8",
          "name": "",
          "type": "uint8"
        }
      ],
      "stateMutability": "view",
      "type": "function"
    },
    {
      "inputs": [
        {
          "internalType": "address",
          "name": "to",
          "type": "address"
        },
        {
          "internalType": "uint256",
          "name": "amount",
          "type": "uint256"
        }
      ],
      "name": "mint",
      "outputs": [],
      "stateMutability": "nonpayable",
      "type": "function"
    },
    {
      "inputs": [],
      "name": "name",
      "outputs": [
        {
          "internalType": "string",
          "name": "",
          "type": "string"
        }
      ],
      "stateMutability": "view",
      "type": "function"
    },
    {
      "inputs": [
        {
          "internalType": "uint256",
          "name": "idPropiedad",
          "type": "uint256"
        }
      ],
      "name": "obtenerDetallesPropiedad",
      "outputs": [
        {
          "internalType": "uint256",
          "name": "",
          "type": "uint256"
        },
        {
          "internalType": "uint256",
          "name": "",
          "type": "uint256"
        },
        {
          "internalType": "address",
          "name": "",
          "type": "address"
        },
        {
          "internalType": "bool",
          "name": "",
          "type": "bool"
        }
      ],
      "stateMutability": "view",
      "type": "function"
    },
    {
      "inputs": [
        {
          "internalType": "uint256",
          "name": "",
          "type": "uint256"
        }
      ],
      "name": "propiedades",
      "outputs": [
        {
          "internalType": "uint256",
          "name": "valor",
          "type": "uint256"
        },
        {
          "internalType": "uint256",
          "name": "tokens",
          "type": "uint256"
        },
        {
          "internalType": "address",
          "name": "propietario",
          "type": "address"
        },
        {
          "internalType": "bool",
          "name": "tokenizada",
          "type": "bool"
        }
      ],
      "stateMutability": "view",
      "type": "function"
    },
    {
      "inputs": [
        {
          "internalType": "uint256",
          "name": "valor",
          "type": "uint256"
        }
      ],
      "name": "registrarPropiedad",
      "outputs": [],
      "stateMutability": "nonpayable",
      "type": "function"
    },
    {
      "inputs": [],
      "name": "symbol",
      "outputs": [
        {
          "internalType": "string",
          "name": "",
          "type": "string"
        }
      ],
      "stateMutability": "view",
      "type": "function"
    },
    {
      "inputs": [
        {
          "internalType": "uint256",
          "name": "idPropiedad",
          "type": "uint256"
        },
        {
          "internalType": "uint256",
          "name": "tokens",
          "type": "uint256"
        }
      ],
      "name": "tokenizarPropiedad",
      "outputs": [],
      "stateMutability": "nonpayable",
      "type": "function"
    },
    {
      "inputs": [],
      "name": "totalSupply",
      "outputs": [
        {
          "internalType": "uint256",
          "name": "",
          "type": "uint256"
        }
      ],
      "stateMutability": "view",
      "type": "function"
    },
    {
      "inputs": [
        {
          "internalType": "address",
          "name": "to",
          "type": "address"
        },
        {
          "internalType": "uint256",
          "name": "value",
          "type": "uint256"
        }
      ],
      "name": "transfer",
      "outputs": [
        {
          "internalType": "bool",
          "name": "",
          "type": "bool"
        }
      ],
      "stateMutability": "nonpayable",
      "type": "function"
    },
    {
      "inputs": [
        {
          "internalType": "address",
          "name": "from",
          "type": "address"
        },
        {
          "internalType": "address",
          "name": "to",
          "type": "address"
        },
        {
          "internalType": "uint256",
          "name": "value",
          "type": "uint256"
        }
      ],
      "name": "transferFrom",
      "outputs": [
        {
          "internalType": "bool",
          "name": "",
          "type": "bool"
        }
      ],
      "stateMutability": "nonpayable",
      "type": "function"
    },
    {
      "inputs": [
        {
          "internalType": "address",
          "name": "to",
          "type": "address"
        },
        {
          "internalType": "uint256",
          "name": "cantidad",
          "type": "uint256"
        }
      ],
      "name": "transferirTokenPropiedad",
      "outputs": [],
      "stateMutability": "nonpayable",
      "type": "function"
    }
  ],
  "transactionHash": "0x4303e14d0a542695352f76b2d22c030616c5d66031cb4bd4bc9d6c8923ff69a5",
  "args": [
    "1000000000000000000000000"
  ],
  "numDeployments": 2,
  "solcInputHash": "4350bfa5e191ff2d768fd9e22144032b",
  "bytecode": "0x60806040523480156200001157600080fd5b50604051620012a4380380620012a483398101604081905262000034916200022b565b604051806040016040528060118152602001702932b0b61022b9ba30ba32902a37b5b2b760791b8152506040518060400160405280600381526020016214915560ea1b81525081600390816200008b9190620002ea565b5060046200009a8282620002ea565b505050620000af3382620000b660201b60201c565b50620003de565b6001600160a01b038216620000e65760405163ec442f0560e01b8152600060048201526024015b60405180910390fd5b620000f460008383620000f8565b5050565b6001600160a01b038316620001275780600260008282546200011b9190620003b6565b909155506200019b9050565b6001600160a01b038316600090815260208190526040902054818110156200017c5760405163391434e360e21b81526001600160a01b03851660048201526024810182905260448101839052606401620000dd565b6001600160a01b03841660009081526020819052604090209082900390555b6001600160a01b038216620001b957600280548290039055620001d8565b6001600160a01b03821660009081526020819052604090208054820190555b816001600160a01b0316836001600160a01b03167fddf252ad1be2c89b69c2b068fc378daa952ba7f163c4a11628f55a4df523b3ef836040516200021e91815260200190565b60405180910390a3505050565b6000602082840312156200023e57600080fd5b5051919050565b634e487b7160e01b600052604160045260246000fd5b600181811c908216806200027057607f821691505b6020821081036200029157634e487b7160e01b600052602260045260246000fd5b50919050565b601f821115620002e557600081815260208120601f850160051c81016020861015620002c05750805b601f850160051c820191505b81811015620002e157828155600101620002cc565b5050505b505050565b81516001600160401b0381111562000306576200030662000245565b6200031e816200031784546200025b565b8462000297565b602080601f8311600181146200035657600084156200033d5750858301515b600019600386901b1c1916600185901b178555620002e1565b600085815260208120601f198616915b82811015620003875788860151825594840194600190910190840162000366565b5085821015620003a65787850151600019600388901b60f8161c191681555b5050505050600190811b01905550565b80820180821115620003d857634e487b7160e01b600052601160045260246000fd5b92915050565b610eb680620003ee6000396000f3fe608060405234801561001057600080fd5b50600436106101215760003560e01c806350c257f4116100ad578063a821f5bb11610071578063a821f5bb146102a1578063a9059cbb146102c1578063c0db7183146102d4578063db2b539414610317578063dd62ed3e1461032a57600080fd5b806350c257f41461024b578063612300ff146102545780636ab06ecf1461025d57806370a082311461027057806395d89b411461029957600080fd5b806318160ddd116100f457806318160ddd146101f157806323b872dd146102035780632cdc5c4914610216578063313ce5671461022957806340c10f191461023857600080fd5b806306fdde0314610126578063095ea7b3146101445780630bb5643b14610167578063123fe5ce146101dc575b600080fd5b61012e610363565b60405161013b9190610c12565b60405180910390f35b610157610152366004610c7c565b6103f5565b604051901515815260200161013b565b6101ab610175366004610ca6565b6006602052600090815260409020805460018201546002909201549091906001600160a01b03811690600160a01b900460ff1684565b60405161013b949392919093845260208401929092526001600160a01b031660408301521515606082015260800190565b6101ef6101ea366004610c7c565b61040f565b005b6002545b60405190815260200161013b565b610157610211366004610cbf565b6104dd565b6101ef610224366004610cfb565b610501565b6040516012815260200161013b565b6101ef610246366004610c7c565b610633565b6101f560055481565b6101f56103e881565b6101ef61026b366004610ca6565b61063d565b6101f561027e366004610d1d565b6001600160a01b031660009081526020819052604090205490565b61012e610760565b6102b46102af366004610d1d565b61076f565b60405161013b9190610d3f565b6101576102cf366004610c7c565b610833565b6101ab6102e2366004610ca6565b60009081526006602052604090208054600182015460029092015490926001600160a01b03821691600160a01b900460ff1690565b6102b4610325366004610ca6565b610841565b6101f5610338366004610d83565b6001600160a01b03918216600090815260016020908152604080832093909416825291909152205490565b60606003805461037290610db6565b80601f016020809104026020016040519081016040528092919081815260200182805461039e90610db6565b80156103eb5780601f106103c0576101008083540402835291602001916103eb565b820191906000526020600020905b8154815290600101906020018083116103ce57829003601f168201915b5050505050905090565b6000336104038185856108ee565b60019150505b92915050565b6001600160a01b038216158015906104365750336000908152602081905260409020548111155b6104805760405162461bcd60e51b81526020600482015260166024820152755472616e73666572656e63696120696e76616c69646160501b60448201526064015b60405180910390fd5b61048c6103e882610df0565b156104ce5760405162461bcd60e51b815260206004820152601260248201527143616e7469646164206e6f2076616c69646160701b6044820152606401610477565b6104d9338383610900565b5050565b6000336104eb85828561095f565b6104f6858585610900565b506001949350505050565b60008111801561051a57506105186103e882610df0565b155b6105595760405162461bcd60e51b815260206004820152601060248201526f546f6b656e7320696e76616c69646f7360801b6044820152606401610477565b60008281526006602052604090206002810154600160a01b900460ff16156105c35760405162461bcd60e51b815260206004820152601760248201527f50726f70696564616420796120746f6b656e697a6164610000000000000000006044820152606401610477565b6001810182905560028101805460ff60a01b198116600160a01b179091556105f4906001600160a01b0316836109dd565b827fcec5e385253ac1a6eb4fa7623fea0b2036579c8601155d3c7ec9ee3702188e998360405161062691815260200190565b60405180910390a2505050565b6104d982826109dd565b600081116106a15760405162461bcd60e51b815260206004820152602b60248201527f456c2076616c6f72206465206c612070726f706965646164206465626520736560448201526a072206d61796f72206120360ac1b6064820152608401610477565b6040805160808101825282815260006020808301828152338486018181526060860185815260058054875260068652958890209651875592516001870155516002909501805492511515600160a01b026001600160a81b03199093166001600160a01b039096169590951791909117909355905492518481529192917f515615706d61de853a3df79ed21574c1d19ca57b913018b094a2479441f0593c910160405180910390a36005805490600061075883610e28565b919050555050565b60606004805461037290610db6565b6060600060055467ffffffffffffffff81111561078e5761078e610e41565b6040519080825280602002602001820160405280156107b7578160200160208202803683370190505b5090506000805b60055481101561082a576000818152600660205260409020600201546001600160a01b0380871691160361081857808383815181106107ff576107ff610e57565b60209081029190910101528161081481610e28565b9250505b8061082281610e28565b9150506107be565b50909392505050565b600033610403818585610900565b6060600060055467ffffffffffffffff81111561086057610860610e41565b604051908082528060200260200182016040528015610889578160200160208202803683370190505b5090506000805b60055481101561082a576000818152600660205260409020548590036108dc57808383815181106108c3576108c3610e57565b6020908102919091010152816108d881610e28565b9250505b806108e681610e28565b915050610890565b6108fb8383836001610a13565b505050565b6001600160a01b03831661092a57604051634b637e8f60e11b815260006004820152602401610477565b6001600160a01b0382166109545760405163ec442f0560e01b815260006004820152602401610477565b6108fb838383610ae8565b6001600160a01b0383811660009081526001602090815260408083209386168352929052205460001981146109d757818110156109c857604051637dc7a0d960e11b81526001600160a01b03841660048201526024810182905260448101839052606401610477565b6109d784848484036000610a13565b50505050565b6001600160a01b038216610a075760405163ec442f0560e01b815260006004820152602401610477565b6104d960008383610ae8565b6001600160a01b038416610a3d5760405163e602df0560e01b815260006004820152602401610477565b6001600160a01b038316610a6757604051634a1406b160e11b815260006004820152602401610477565b6001600160a01b03808516600090815260016020908152604080832093871683529290522082905580156109d757826001600160a01b0316846001600160a01b03167f8c5be1e5ebec7d5bd14f71427d1e84f3dd0314c0f7b2291e5b200ac8c7c3b92584604051610ada91815260200190565b60405180910390a350505050565b6001600160a01b038316610b13578060026000828254610b089190610e6d565b90915550610b859050565b6001600160a01b03831660009081526020819052604090205481811015610b665760405163391434e360e21b81526001600160a01b03851660048201526024810182905260448101839052606401610477565b6001600160a01b03841660009081526020819052604090209082900390555b6001600160a01b038216610ba157600280548290039055610bc0565b6001600160a01b03821660009081526020819052604090208054820190555b816001600160a01b0316836001600160a01b03167fddf252ad1be2c89b69c2b068fc378daa952ba7f163c4a11628f55a4df523b3ef83604051610c0591815260200190565b60405180910390a3505050565b600060208083528351808285015260005b81811015610c3f57858101830151858201604001528201610c23565b506000604082860101526040601f19601f8301168501019250505092915050565b80356001600160a01b0381168114610c7757600080fd5b919050565b60008060408385031215610c8f57600080fd5b610c9883610c60565b946020939093013593505050565b600060208284031215610cb857600080fd5b5035919050565b600080600060608486031215610cd457600080fd5b610cdd84610c60565b9250610ceb60208501610c60565b9150604084013590509250925092565b60008060408385031215610d0e57600080fd5b50508035926020909101359150565b600060208284031215610d2f57600080fd5b610d3882610c60565b9392505050565b6020808252825182820181905260009190848201906040850190845b81811015610d7757835183529284019291840191600101610d5b565b50909695505050505050565b60008060408385031215610d9657600080fd5b610d9f83610c60565b9150610dad60208401610c60565b90509250929050565b600181811c90821680610dca57607f821691505b602082108103610dea57634e487b7160e01b600052602260045260246000fd5b50919050565b600082610e0d57634e487b7160e01b600052601260045260246000fd5b500690565b634e487b7160e01b600052601160045260246000fd5b600060018201610e3a57610e3a610e12565b5060010190565b634e487b7160e01b600052604160045260246000fd5b634e487b7160e01b600052603260045260246000fd5b8082018082111561040957610409610e1256fea2646970667358221220c054e451e745de39b5f8fc2ad0f2028de3b8f5e977c397d41e02dca78c6c15fa64736f6c63430008140033",
  "devdoc": {
    "details": "Contrato para tokenizar propiedades inmobiliarias utilizando ERC20",
    "errors": {
      "ERC20InsufficientAllowance(address,uint256,uint256)": [
        {
          "details": "Indicates a failure with the `spender`s `allowance`. Used in transfers.",
          "params": {
            "allowance": "Amount of tokens a `spender` is allowed to operate with.",
            "needed": "Minimum amount required to perform a transfer.",
            "spender": "Address that may be allowed to operate on tokens without being their owner."
          }
        }
      ],
      "ERC20InsufficientBalance(address,uint256,uint256)": [
        {
          "details": "Indicates an error related to the current `balance` of a `sender`. Used in transfers.",
          "params": {
            "balance": "Current balance for the interacting account.",
            "needed": "Minimum amount required to perform a transfer.",
            "sender": "Address whose tokens are being transferred."
          }
        }
      ],
      "ERC20InvalidApprover(address)": [
        {
          "details": "Indicates a failure with the `approver` of a token to be approved. Used in approvals.",
          "params": {
            "approver": "Address initiating an approval operation."
          }
        }
      ],
      "ERC20InvalidReceiver(address)": [
        {
          "details": "Indicates a failure with the token `receiver`. Used in transfers.",
          "params": {
            "receiver": "Address to which tokens are being transferred."
          }
        }
      ],
      "ERC20InvalidSender(address)": [
        {
          "details": "Indicates a failure with the token `sender`. Used in transfers.",
          "params": {
            "sender": "Address whose tokens are being transferred."
          }
        }
      ],
      "ERC20InvalidSpender(address)": [
        {
          "details": "Indicates a failure with the `spender` to be approved. Used in approvals.",
          "params": {
            "spender": "Address that may be allowed to operate on tokens without being their owner."
          }
        }
      ]
    },
    "events": {
      "Approval(address,address,uint256)": {
        "details": "Emitted when the allowance of a `spender` for an `owner` is set by a call to {approve}. `value` is the new allowance."
      },
      "Transfer(address,address,uint256)": {
        "details": "Emitted when `value` tokens are moved from one account (`from`) to another (`to`). Note that `value` may be zero."
      }
    },
    "kind": "dev",
    "methods": {
      "allowance(address,address)": {
        "details": "See {IERC20-allowance}."
      },
      "approve(address,uint256)": {
        "details": "See {IERC20-approve}. NOTE: If `value` is the maximum `uint256`, the allowance is not updated on `transferFrom`. This is semantically equivalent to an infinite approval. Requirements: - `spender` cannot be the zero address."
      },
      "balanceOf(address)": {
        "details": "See {IERC20-balanceOf}."
      },
      "constructor": {
        "details": "Constructor que inicializa el suministro inicial de tokens",
        "params": {
          "initialSupply": "Suministro inicial de tokens"
        }
      },
      "consultarPropiedadesPorPropietario(address)": {
        "details": "Consultar propiedades por propietario",
        "params": {
          "propietario": "Direccin del propietario"
        },
        "returns": {
          "_0": "ids Array de IDs de propiedades pertenecientes al propietario"
        }
      },
      "consultarPropiedadesPorValor(uint256)": {
        "details": "Consultar propiedades por valor",
        "params": {
          "valor": "Valor de la propiedad"
        },
        "returns": {
          "_0": "ids Array de IDs de propiedades con el valor especificado"
        }
      },
      "decimals()": {
        "details": "Returns the number of decimals used to get its user representation. For example, if `decimals` equals `2`, a balance of `505` tokens should be displayed to a user as `5.05` (`505 / 10 ** 2`). Tokens usually opt for a value of 18, imitating the relationship between Ether and Wei. This is the default value returned by this function, unless it's overridden. NOTE: This information is only used for _display_ purposes: it in no way affects any of the arithmetic of the contract, including {IERC20-balanceOf} and {IERC20-transfer}."
      },
      "name()": {
        "details": "Returns the name of the token."
      },
      "obtenerDetallesPropiedad(uint256)": {
        "details": "Obtener detalles de una propiedad registrada",
        "params": {
          "idPropiedad": "ID de la propiedad"
        },
        "returns": {
          "_0": "valor Valor de la propiedad",
          "_1": "tokens Cantidad de tokens asignados a la propiedad",
          "_2": "propietario Direccin del propietario de la propiedad",
          "_3": "tokenizada Estado de tokenizacin de la propiedad"
        }
      },
      "registrarPropiedad(uint256)": {
        "details": "Funcin para registrar una nueva propiedad",
        "params": {
          "valor": "Valor de la propiedad en wei"
        }
      },
      "symbol()": {
        "details": "Returns the symbol of the token, usually a shorter version of the name."
      },
      "tokenizarPropiedad(uint256,uint256)": {
        "details": "Funcin para tokenizar una propiedad registrada",
        "params": {
          "idPropiedad": "ID de la propiedad a tokenizar",
          "tokens": "Cantidad de tokens a asignar a la propiedad"
        }
      },
      "totalSupply()": {
        "details": "See {IERC20-totalSupply}."
      },
      "transfer(address,uint256)": {
        "details": "See {IERC20-transfer}. Requirements: - `to` cannot be the zero address. - the caller must have a balance of at least `value`."
      },
      "transferFrom(address,address,uint256)": {
        "details": "See {IERC20-transferFrom}. Emits an {Approval} event indicating the updated allowance. This is not required by the EIP. See the note at the beginning of {ERC20}. NOTE: Does not update the allowance if the current allowance is the maximum `uint256`. Requirements: - `from` and `to` cannot be the zero address. - `from` must have a balance of at least `value`. - the caller must have allowance for ``from``'s tokens of at least `value`."
      },
      "transferirTokenPropiedad(address,uint256)": {
        "details": "Funcin para transferir tokens de propiedad a otra direccin",
        "params": {
          "cantidad": "Cantidad de tokens a transferir",
          "to": "Direccin del destinatario"
        }
      }
    },
    "title": "RealEstateToken",
    "version": 1
  },
  "userdoc": {
    "kind": "user",
    "methods": {},
    "version": 1
  },
  "storageLayout": {
    "storage": [
      {
        "astId": 159,
        "contract": "contracts/RealEstateToken.sol:RealEstateToken",
        "label": "_balances",
        "offset": 0,
        "slot": "0",
        "type": "t_mapping(t_address,t_uint256)"
      },
      {
        "astId": 165,
        "contract": "contracts/RealEstateToken.sol:RealEstateToken",
        "label": "_allowances",
        "offset": 0,
        "slot": "1",
        "type": "t_mapping(t_address,t_mapping(t_address,t_uint256))"
      },
      {
        "astId": 167,
        "contract": "contracts/RealEstateToken.sol:RealEstateToken",
        "label": "_totalSupply",
        "offset": 0,
        "slot": "2",
        "type": "t_uint256"
      },
      {
        "astId": 169,
        "contract": "contracts/RealEstateToken.sol:RealEstateToken",
        "label": "_name",
        "offset": 0,
        "slot": "3",
        "type": "t_string_storage"
      },
      {
        "astId": 171,
        "contract": "contracts/RealEstateToken.sol:RealEstateToken",
        "label": "_symbol",
        "offset": 0,
        "slot": "4",
        "type": "t_string_storage"
      },
      {
        "astId": 802,
        "contract": "contracts/RealEstateToken.sol:RealEstateToken",
        "label": "contadorPropiedades",
        "offset": 0,
        "slot": "5",
        "type": "t_uint256"
      },
      {
        "astId": 807,
        "contract": "contracts/RealEstateToken.sol:RealEstateToken",
        "label": "propiedades",
        "offset": 0,
        "slot": "6",
        "type": "t_mapping(t_uint256,t_struct(Propiedad)800_storage)"
      }
    ],
    "types": {
      "t_address": {
        "encoding": "inplace",
        "label": "address",
        "numberOfBytes": "20"
      },
      "t_bool": {
        "encoding": "inplace",
        "label": "bool",
        "numberOfBytes": "1"
      },
      "t_mapping(t_address,t_mapping(t_address,t_uint256))": {
        "encoding": "mapping",
        "key": "t_address",
        "label": "mapping(address => mapping(address => uint256))",
        "numberOfBytes": "32",
        "value": "t_mapping(t_address,t_uint256)"
      },
      "t_mapping(t_address,t_uint256)": {
        "encoding": "mapping",
        "key": "t_address",
        "label": "mapping(address => uint256)",
        "numberOfBytes": "32",
        "value": "t_uint256"
      },
      "t_mapping(t_uint256,t_struct(Propiedad)800_storage)": {
        "encoding": "mapping",
        "key": "t_uint256",
        "label": "mapping(uint256 => struct RealEstateToken.Propiedad)",
        "numberOfBytes": "32",
        "value": "t_struct(Propiedad)800_storage"
      },
      "t_string_storage": {
        "encoding": "bytes",
        "label": "string",
        "numberOfBytes": "32"
      },
      "t_struct(Propiedad)800_storage": {
        "encoding": "inplace",
        "label": "struct RealEstateToken.Propiedad",
        "members": [
          {
            "astId": 793,
            "contract": "contracts/RealEstateToken.sol:RealEstateToken",
            "label": "valor",
            "offset": 0,
            "slot": "0",
            "type": "t_uint256"
          },
          {
            "astId": 795,
            "contract": "contracts/RealEstateToken.sol:RealEstateToken",
            "label": "tokens",
            "offset": 0,
            "slot": "1",
            "type": "t_uint256"
          },
          {
            "astId": 797,
            "contract": "contracts/RealEstateToken.sol:RealEstateToken",
            "label": "propietario",
            "offset": 0,
            "slot": "2",
            "type": "t_address"
          },
          {
            "astId": 799,
            "contract": "contracts/RealEstateToken.sol:RealEstateToken",
            "label": "tokenizada",
            "offset": 20,
            "slot": "2",
            "type": "t_bool"
          }
        ],
        "numberOfBytes": "96"
      },
      "t_uint256": {
        "encoding": "inplace",
        "label": "uint256",
        "numberOfBytes": "32"
      }
    }
  }
}