{
  "address": "0x3d55926078F13aF1186C476520104881088F0E13",
  "abi": [
    {
      "inputs": [
        {
          "internalType": "uint256",
          "name": "initialSupply",
          "type": "uint256"
        }
      ],
      "stateMutability": "nonpayable",
      "type": "constructor"
    },
    {
      "inputs": [
        {
          "internalType": "address",
          "name": "spender",
          "type": "address"
        },
        {
          "internalType": "uint256",
          "name": "allowance",
          "type": "uint256"
        },
        {
          "internalType": "uint256",
          "name": "needed",
          "type": "uint256"
        }
      ],
      "name": "ERC20InsufficientAllowance",
      "type": "error"
    },
    {
      "inputs": [
        {
          "internalType": "address",
          "name": "sender",
          "type": "address"
        },
        {
          "internalType": "uint256",
          "name": "balance",
          "type": "uint256"
        },
        {
          "internalType": "uint256",
          "name": "needed",
          "type": "uint256"
        }
      ],
      "name": "ERC20InsufficientBalance",
      "type": "error"
    },
    {
      "inputs": [
        {
          "internalType": "address",
          "name": "approver",
          "type": "address"
        }
      ],
      "name": "ERC20InvalidApprover",
      "type": "error"
    },
    {
      "inputs": [
        {
          "internalType": "address",
          "name": "receiver",
          "type": "address"
        }
      ],
      "name": "ERC20InvalidReceiver",
      "type": "error"
    },
    {
      "inputs": [
        {
          "internalType": "address",
          "name": "sender",
          "type": "address"
        }
      ],
      "name": "ERC20InvalidSender",
      "type": "error"
    },
    {
      "inputs": [
        {
          "internalType": "address",
          "name": "spender",
          "type": "address"
        }
      ],
      "name": "ERC20InvalidSpender",
      "type": "error"
    },
    {
      "anonymous": false,
      "inputs": [
        {
          "indexed": true,
          "internalType": "address",
          "name": "owner",
          "type": "address"
        },
        {
          "indexed": true,
          "internalType": "address",
          "name": "spender",
          "type": "address"
        },
        {
          "indexed": false,
          "internalType": "uint256",
          "name": "value",
          "type": "uint256"
        }
      ],
      "name": "Approval",
      "type": "event"
    },
    {
      "anonymous": false,
      "inputs": [
        {
          "indexed": true,
          "internalType": "uint256",
          "name": "idPropiedad",
          "type": "uint256"
        },
        {
          "indexed": true,
          "internalType": "address",
          "name": "propietario",
          "type": "address"
        },
        {
          "indexed": false,
          "internalType": "uint256",
          "name": "valor",
          "type": "uint256"
        }
      ],
      "name": "PropiedadRegistrada",
      "type": "event"
    },
    {
      "anonymous": false,
      "inputs": [
        {
          "indexed": true,
          "internalType": "uint256",
          "name": "idPropiedad",
          "type": "uint256"
        },
        {
          "indexed": false,
          "internalType": "uint256",
          "name": "tokens",
          "type": "uint256"
        }
      ],
      "name": "PropiedadTokenizada",
      "type": "event"
    },
    {
      "anonymous": false,
      "inputs": [
        {
          "indexed": true,
          "internalType": "address",
          "name": "from",
          "type": "address"
        },
        {
          "indexed": true,
          "internalType": "address",
          "name": "to",
          "type": "address"
        },
        {
          "indexed": false,
          "internalType": "uint256",
          "name": "value",
          "type": "uint256"
        }
      ],
      "name": "Transfer",
      "type": "event"
    },
    {
      "inputs": [
        {
          "internalType": "address",
          "name": "owner",
          "type": "address"
        },
        {
          "internalType": "address",
          "name": "spender",
          "type": "address"
        }
      ],
      "name": "allowance",
      "outputs": [
        {
          "internalType": "uint256",
          "name": "",
          "type": "uint256"
        }
      ],
      "stateMutability": "view",
      "type": "function"
    },
    {
      "inputs": [
        {
          "internalType": "address",
          "name": "spender",
          "type": "address"
        },
        {
          "internalType": "uint256",
          "name": "value",
          "type": "uint256"
        }
      ],
      "name": "approve",
      "outputs": [
        {
          "internalType": "bool",
          "name": "",
          "type": "bool"
        }
      ],
      "stateMutability": "nonpayable",
      "type": "function"
    },
    {
      "inputs": [
        {
          "internalType": "address",
          "name": "account",
          "type": "address"
        }
      ],
      "name": "balanceOf",
      "outputs": [
        {
          "internalType": "uint256",
          "name": "",
          "type": "uint256"
        }
      ],
      "stateMutability": "view",
      "type": "function"
    },
    {
      "inputs": [
        {
          "internalType": "address",
          "name": "propietario",
          "type": "address"
        }
      ],
      "name": "consultarPropiedadesPorPropietario",
      "outputs": [
        {
          "internalType": "uint256[]",
          "name": "",
          "type": "uint256[]"
        }
      ],
      "stateMutability": "view",
      "type": "function"
    },
    {
      "inputs": [
        {
          "internalType": "uint256",
          "name": "valor",
          "type": "uint256"
        }
      ],
      "name": "consultarPropiedadesPorValor",
      "outputs": [
        {
          "internalType": "uint256[]",
          "name": "",
          "type": "uint256[]"
        }
      ],
      "stateMutability": "view",
      "type": "function"
    },
    {
      "inputs": [],
      "name": "contadorPropiedades",
      "outputs": [
        {
          "internalType": "uint256",
          "name": "",
          "type": "uint256"
        }
      ],
      "stateMutability": "view",
      "type": "function"
    },
    {
      "inputs": [],
      "name": "decimals",
      "outputs": [
        {
          "internalType": "uint8",
          "name": "",
          "type": "uint8"
        }
      ],
      "stateMutability": "view",
      "type": "function"
    },
    {
      "inputs": [
        {
          "internalType": "address",
          "name": "to",
          "type": "address"
        },
        {
          "internalType": "uint256",
          "name": "amount",
          "type": "uint256"
        }
      ],
      "name": "mint",
      "outputs": [],
      "stateMutability": "nonpayable",
      "type": "function"
    },
    {
      "inputs": [],
      "name": "name",
      "outputs": [
        {
          "internalType": "string",
          "name": "",
          "type": "string"
        }
      ],
      "stateMutability": "view",
      "type": "function"
    },
    {
      "inputs": [
        {
          "internalType": "uint256",
          "name": "idPropiedad",
          "type": "uint256"
        }
      ],
      "name": "obtenerDetallesPropiedad",
      "outputs": [
        {
          "internalType": "uint256",
          "name": "",
          "type": "uint256"
        },
        {
          "internalType": "uint256",
          "name": "",
          "type": "uint256"
        },
        {
          "internalType": "address",
          "name": "",
          "type": "address"
        },
        {
          "internalType": "bool",
          "name": "",
          "type": "bool"
        }
      ],
      "stateMutability": "view",
      "type": "function"
    },
    {
      "inputs": [],
      "name": "owner",
      "outputs": [
        {
          "internalType": "address",
          "name": "",
          "type": "address"
        }
      ],
      "stateMutability": "view",
      "type": "function"
    },
    {
      "inputs": [
        {
          "internalType": "uint256",
          "name": "",
          "type": "uint256"
        }
      ],
      "name": "propiedades",
      "outputs": [
        {
          "internalType": "uint256",
          "name": "valor",
          "type": "uint256"
        },
        {
          "internalType": "uint256",
          "name": "tokens",
          "type": "uint256"
        },
        {
          "internalType": "address",
          "name": "propietario",
          "type": "address"
        },
        {
          "internalType": "bool",
          "name": "tokenizada",
          "type": "bool"
        }
      ],
      "stateMutability": "view",
      "type": "function"
    },
    {
      "inputs": [
        {
          "internalType": "uint256",
          "name": "valor",
          "type": "uint256"
        }
      ],
      "name": "registrarPropiedad",
      "outputs": [],
      "stateMutability": "nonpayable",
      "type": "function"
    },
    {
      "inputs": [],
      "name": "symbol",
      "outputs": [
        {
          "internalType": "string",
          "name": "",
          "type": "string"
        }
      ],
      "stateMutability": "view",
      "type": "function"
    },
    {
      "inputs": [
        {
          "internalType": "uint256",
          "name": "idPropiedad",
          "type": "uint256"
        }
      ],
      "name": "tokenizarPropiedad",
      "outputs": [],
      "stateMutability": "nonpayable",
      "type": "function"
    },
    {
      "inputs": [],
      "name": "totalSupply",
      "outputs": [
        {
          "internalType": "uint256",
          "name": "",
          "type": "uint256"
        }
      ],
      "stateMutability": "view",
      "type": "function"
    },
    {
      "inputs": [
        {
          "internalType": "address",
          "name": "to",
          "type": "address"
        },
        {
          "internalType": "uint256",
          "name": "value",
          "type": "uint256"
        }
      ],
      "name": "transfer",
      "outputs": [
        {
          "internalType": "bool",
          "name": "",
          "type": "bool"
        }
      ],
      "stateMutability": "nonpayable",
      "type": "function"
    },
    {
      "inputs": [
        {
          "internalType": "address",
          "name": "from",
          "type": "address"
        },
        {
          "internalType": "address",
          "name": "to",
          "type": "address"
        },
        {
          "internalType": "uint256",
          "name": "value",
          "type": "uint256"
        }
      ],
      "name": "transferFrom",
      "outputs": [
        {
          "internalType": "bool",
          "name": "",
          "type": "bool"
        }
      ],
      "stateMutability": "nonpayable",
      "type": "function"
    },
    {
      "inputs": [
        {
          "internalType": "address",
          "name": "to",
          "type": "address"
        },
        {
          "internalType": "uint256",
          "name": "cantidad",
          "type": "uint256"
        }
      ],
      "name": "transferirTokenPropiedad",
      "outputs": [],
      "stateMutability": "nonpayable",
      "type": "function"
    }
  ],
  "transactionHash": "0xac27464fdca03137132d8d8c9b810711f6191bc37cb14a36f3b7ecb1fad5bbd0",
  "args": [
    "1000000000000000000000000"
  ],
  "numDeployments": 8,
  "solcInputHash": "4087e17c417bcda925e63f5c00afa756",
  "bytecode": "0x60806040523480156200001157600080fd5b50604051620012bf380380620012bf83398101604081905262000034916200023d565b604051806040016040528060118152602001702932b0b61022b9ba30ba32902a37b5b2b760791b8152506040518060400160405280600381526020016214915560ea1b81525081600390816200008b9190620002fc565b5060046200009a8282620002fc565b505050620000af3382620000c860201b60201c565b50600580546001600160a01b03191633179055620003f0565b6001600160a01b038216620000f85760405163ec442f0560e01b8152600060048201526024015b60405180910390fd5b62000106600083836200010a565b5050565b6001600160a01b038316620001395780600260008282546200012d9190620003c8565b90915550620001ad9050565b6001600160a01b038316600090815260208190526040902054818110156200018e5760405163391434e360e21b81526001600160a01b03851660048201526024810182905260448101839052606401620000ef565b6001600160a01b03841660009081526020819052604090209082900390555b6001600160a01b038216620001cb57600280548290039055620001ea565b6001600160a01b03821660009081526020819052604090208054820190555b816001600160a01b0316836001600160a01b03167fddf252ad1be2c89b69c2b068fc378daa952ba7f163c4a11628f55a4df523b3ef836040516200023091815260200190565b60405180910390a3505050565b6000602082840312156200025057600080fd5b5051919050565b634e487b7160e01b600052604160045260246000fd5b600181811c908216806200028257607f821691505b602082108103620002a357634e487b7160e01b600052602260045260246000fd5b50919050565b601f821115620002f757600081815260208120601f850160051c81016020861015620002d25750805b601f850160051c820191505b81811015620002f357828155600101620002de565b5050505b505050565b81516001600160401b0381111562000318576200031862000257565b62000330816200032984546200026d565b84620002a9565b602080601f8311600181146200036857600084156200034f5750858301515b600019600386901b1c1916600185901b178555620002f3565b600085815260208120601f198616915b82811015620003995788860151825594840194600190910190840162000378565b5085821015620003b85787850151600019600388901b60f8161c191681555b5050505050600190811b01905550565b80820180821115620003ea57634e487b7160e01b600052601160045260246000fd5b92915050565b610ebf80620004006000396000f3fe608060405234801561001057600080fd5b50600436106101215760003560e01c806350c257f4116100ad578063a821f5bb11610071578063a821f5bb146102c3578063a9059cbb146102e3578063c0db7183146102f6578063db2b539414610339578063dd62ed3e1461034c57600080fd5b806350c257f41461024b5780636ab06ecf1461025457806370a08231146102675780638da5cb5b1461029057806395d89b41146102bb57600080fd5b806314e8d8bc116100f457806314e8d8bc146101f157806318160ddd1461020457806323b872dd14610216578063313ce5671461022957806340c10f191461023857600080fd5b806306fdde0314610126578063095ea7b3146101445780630bb5643b14610167578063123fe5ce146101dc575b600080fd5b61012e610385565b60405161013b9190610c5f565b60405180910390f35b610157610152366004610cc9565b610417565b604051901515815260200161013b565b6101ab610175366004610cf3565b6007602052600090815260409020805460018201546002909201549091906001600160a01b03811690600160a01b900460ff1684565b60405161013b949392919093845260208401929092526001600160a01b031660408301521515606082015260800190565b6101ef6101ea366004610cc9565b610431565b005b6101ef6101ff366004610cf3565b6104b1565b6002545b60405190815260200161013b565b610157610224366004610d0c565b610602565b6040516012815260200161013b565b6101ef610246366004610cc9565b610626565b61020860065481565b6101ef610262366004610cf3565b61068a565b610208610275366004610d48565b6001600160a01b031660009081526020819052604090205490565b6005546102a3906001600160a01b031681565b6040516001600160a01b03909116815260200161013b565b61012e6107ad565b6102d66102d1366004610d48565b6107bc565b60405161013b9190610d6a565b6101576102f1366004610cc9565b610880565b6101ab610304366004610cf3565b60009081526007602052604090208054600182015460029092015490926001600160a01b03821691600160a01b900460ff1690565b6102d6610347366004610cf3565b61088e565b61020861035a366004610dae565b6001600160a01b03918216600090815260016020908152604080832093909416825291909152205490565b60606003805461039490610de1565b80601f01602080910402602001604051908101604052809291908181526020018280546103c090610de1565b801561040d5780601f106103e25761010080835404028352916020019161040d565b820191906000526020600020905b8154815290600101906020018083116103f057829003601f168201915b5050505050905090565b60003361042581858561093b565b60019150505b92915050565b6001600160a01b038216158015906104585750336000908152602081905260409020548111155b6104a25760405162461bcd60e51b81526020600482015260166024820152755472616e73666572656e63696120696e76616c69646160501b60448201526064015b60405180910390fd5b6104ad33838361094d565b5050565b60008181526007602052604090206002810154600160a01b900460ff161561051b5760405162461bcd60e51b815260206004820152601760248201527f50726f70696564616420796120746f6b656e697a6164610000000000000000006044820152606401610499565b60028101546001600160a01b031633146105905760405162461bcd60e51b815260206004820152603060248201527f536f6c6f20656c2070726f706965746172696f20707565646520746f6b656e6960448201526f1e985c881b18481c1c9bdc1a5959185960821b6064820152608401610499565b80546001820181905560028201805460ff60a01b198116600160a01b179091556105c3906001600160a01b0316826109ac565b827fcec5e385253ac1a6eb4fa7623fea0b2036579c8601155d3c7ec9ee3702188e99826040516105f591815260200190565b60405180910390a2505050565b6000336106108582856109e2565b61061b85858561094d565b506001949350505050565b6005546001600160a01b031633146106805760405162461bcd60e51b815260206004820152601e60248201527f4f6e6c7920746865206f776e65722063616e206d696e7420746f6b656e7300006044820152606401610499565b6104ad82826109ac565b600081116106ee5760405162461bcd60e51b815260206004820152602b60248201527f456c2076616c6f72206465206c612070726f706965646164206465626520736560448201526a072206d61796f72206120360ac1b6064820152608401610499565b6040805160808101825282815260006020808301828152338486018181526060860185815260068054875260078652958890209651875592516001870155516002909501805492511515600160a01b026001600160a81b03199093166001600160a01b039096169590951791909117909355905492518481529192917f515615706d61de853a3df79ed21574c1d19ca57b913018b094a2479441f0593c910160405180910390a3600680549060006107a583610e31565b919050555050565b60606004805461039490610de1565b6060600060065467ffffffffffffffff8111156107db576107db610e4a565b604051908082528060200260200182016040528015610804578160200160208202803683370190505b5090506000805b600654811015610877576000818152600760205260409020600201546001600160a01b03808716911603610865578083838151811061084c5761084c610e60565b60209081029190910101528161086181610e31565b9250505b8061086f81610e31565b91505061080b565b50909392505050565b60003361042581858561094d565b6060600060065467ffffffffffffffff8111156108ad576108ad610e4a565b6040519080825280602002602001820160405280156108d6578160200160208202803683370190505b5090506000805b60065481101561087757600081815260076020526040902054859003610929578083838151811061091057610910610e60565b60209081029190910101528161092581610e31565b9250505b8061093381610e31565b9150506108dd565b6109488383836001610a60565b505050565b6001600160a01b03831661097757604051634b637e8f60e11b815260006004820152602401610499565b6001600160a01b0382166109a15760405163ec442f0560e01b815260006004820152602401610499565b610948838383610b35565b6001600160a01b0382166109d65760405163ec442f0560e01b815260006004820152602401610499565b6104ad60008383610b35565b6001600160a01b038381166000908152600160209081526040808320938616835292905220546000198114610a5a5781811015610a4b57604051637dc7a0d960e11b81526001600160a01b03841660048201526024810182905260448101839052606401610499565b610a5a84848484036000610a60565b50505050565b6001600160a01b038416610a8a5760405163e602df0560e01b815260006004820152602401610499565b6001600160a01b038316610ab457604051634a1406b160e11b815260006004820152602401610499565b6001600160a01b0380851660009081526001602090815260408083209387168352929052208290558015610a5a57826001600160a01b0316846001600160a01b03167f8c5be1e5ebec7d5bd14f71427d1e84f3dd0314c0f7b2291e5b200ac8c7c3b92584604051610b2791815260200190565b60405180910390a350505050565b6001600160a01b038316610b60578060026000828254610b559190610e76565b90915550610bd29050565b6001600160a01b03831660009081526020819052604090205481811015610bb35760405163391434e360e21b81526001600160a01b03851660048201526024810182905260448101839052606401610499565b6001600160a01b03841660009081526020819052604090209082900390555b6001600160a01b038216610bee57600280548290039055610c0d565b6001600160a01b03821660009081526020819052604090208054820190555b816001600160a01b0316836001600160a01b03167fddf252ad1be2c89b69c2b068fc378daa952ba7f163c4a11628f55a4df523b3ef83604051610c5291815260200190565b60405180910390a3505050565b600060208083528351808285015260005b81811015610c8c57858101830151858201604001528201610c70565b506000604082860101526040601f19601f8301168501019250505092915050565b80356001600160a01b0381168114610cc457600080fd5b919050565b60008060408385031215610cdc57600080fd5b610ce583610cad565b946020939093013593505050565b600060208284031215610d0557600080fd5b5035919050565b600080600060608486031215610d2157600080fd5b610d2a84610cad565b9250610d3860208501610cad565b9150604084013590509250925092565b600060208284031215610d5a57600080fd5b610d6382610cad565b9392505050565b6020808252825182820181905260009190848201906040850190845b81811015610da257835183529284019291840191600101610d86565b50909695505050505050565b60008060408385031215610dc157600080fd5b610dca83610cad565b9150610dd860208401610cad565b90509250929050565b600181811c90821680610df557607f821691505b602082108103610e1557634e487b7160e01b600052602260045260246000fd5b50919050565b634e487b7160e01b600052601160045260246000fd5b600060018201610e4357610e43610e1b565b5060010190565b634e487b7160e01b600052604160045260246000fd5b634e487b7160e01b600052603260045260246000fd5b8082018082111561042b5761042b610e1b56fea264697066735822122049a448ac20c5e705d6f1ed7aba04d5d028c2f8898e2ca8a6d9cccadd1d070d5264736f6c63430008140033",
  "devdoc": {
    "details": "Contrato para tokenizar propiedades inmobiliarias utilizando ERC20",
    "errors": {
      "ERC20InsufficientAllowance(address,uint256,uint256)": [
        {
          "details": "Indicates a failure with the `spender`s `allowance`. Used in transfers.",
          "params": {
            "allowance": "Amount of tokens a `spender` is allowed to operate with.",
            "needed": "Minimum amount required to perform a transfer.",
            "spender": "Address that may be allowed to operate on tokens without being their owner."
          }
        }
      ],
      "ERC20InsufficientBalance(address,uint256,uint256)": [
        {
          "details": "Indicates an error related to the current `balance` of a `sender`. Used in transfers.",
          "params": {
            "balance": "Current balance for the interacting account.",
            "needed": "Minimum amount required to perform a transfer.",
            "sender": "Address whose tokens are being transferred."
          }
        }
      ],
      "ERC20InvalidApprover(address)": [
        {
          "details": "Indicates a failure with the `approver` of a token to be approved. Used in approvals.",
          "params": {
            "approver": "Address initiating an approval operation."
          }
        }
      ],
      "ERC20InvalidReceiver(address)": [
        {
          "details": "Indicates a failure with the token `receiver`. Used in transfers.",
          "params": {
            "receiver": "Address to which tokens are being transferred."
          }
        }
      ],
      "ERC20InvalidSender(address)": [
        {
          "details": "Indicates a failure with the token `sender`. Used in transfers.",
          "params": {
            "sender": "Address whose tokens are being transferred."
          }
        }
      ],
      "ERC20InvalidSpender(address)": [
        {
          "details": "Indicates a failure with the `spender` to be approved. Used in approvals.",
          "params": {
            "spender": "Address that may be allowed to operate on tokens without being their owner."
          }
        }
      ]
    },
    "events": {
      "Approval(address,address,uint256)": {
        "details": "Emitted when the allowance of a `spender` for an `owner` is set by a call to {approve}. `value` is the new allowance."
      },
      "Transfer(address,address,uint256)": {
        "details": "Emitted when `value` tokens are moved from one account (`from`) to another (`to`). Note that `value` may be zero."
      }
    },
    "kind": "dev",
    "methods": {
      "allowance(address,address)": {
        "details": "See {IERC20-allowance}."
      },
      "approve(address,uint256)": {
        "details": "See {IERC20-approve}. NOTE: If `value` is the maximum `uint256`, the allowance is not updated on `transferFrom`. This is semantically equivalent to an infinite approval. Requirements: - `spender` cannot be the zero address."
      },
      "balanceOf(address)": {
        "details": "See {IERC20-balanceOf}."
      },
      "constructor": {
        "details": "Constructor que inicializa el suministro inicial de tokens",
        "params": {
          "initialSupply": "Suministro inicial de tokens"
        }
      },
      "consultarPropiedadesPorPropietario(address)": {
        "details": "Consultar propiedades por propietario",
        "params": {
          "propietario": "Direccin del propietario"
        },
        "returns": {
          "_0": "ids Array de IDs de propiedades pertenecientes al propietario"
        }
      },
      "consultarPropiedadesPorValor(uint256)": {
        "details": "Consultar propiedades por valor",
        "params": {
          "valor": "Valor de la propiedad"
        },
        "returns": {
          "_0": "ids Array de IDs de propiedades con el valor especificado"
        }
      },
      "decimals()": {
        "details": "Returns the number of decimals used to get its user representation. For example, if `decimals` equals `2`, a balance of `505` tokens should be displayed to a user as `5.05` (`505 / 10 ** 2`). Tokens usually opt for a value of 18, imitating the relationship between Ether and Wei. This is the default value returned by this function, unless it's overridden. NOTE: This information is only used for _display_ purposes: it in no way affects any of the arithmetic of the contract, including {IERC20-balanceOf} and {IERC20-transfer}."
      },
      "name()": {
        "details": "Returns the name of the token."
      },
      "obtenerDetallesPropiedad(uint256)": {
        "details": "Obtener detalles de una propiedad registrada",
        "params": {
          "idPropiedad": "ID de la propiedad"
        },
        "returns": {
          "_0": "valor Valor de la propiedad",
          "_1": "tokens Cantidad de tokens asignados a la propiedad",
          "_2": "propietario Direccin del propietario de la propiedad",
          "_3": "tokenizada Estado de tokenizacin de la propiedad"
        }
      },
      "registrarPropiedad(uint256)": {
        "details": "Funcin para registrar una nueva propiedad",
        "params": {
          "valor": "Valor de la propiedad en wei"
        }
      },
      "symbol()": {
        "details": "Returns the symbol of the token, usually a shorter version of the name."
      },
      "tokenizarPropiedad(uint256)": {
        "details": "Funcin para tokenizar una propiedad registrada",
        "params": {
          "idPropiedad": "ID de la propiedad a tokenizar"
        }
      },
      "totalSupply()": {
        "details": "See {IERC20-totalSupply}."
      },
      "transfer(address,uint256)": {
        "details": "See {IERC20-transfer}. Requirements: - `to` cannot be the zero address. - the caller must have a balance of at least `value`."
      },
      "transferFrom(address,address,uint256)": {
        "details": "See {IERC20-transferFrom}. Emits an {Approval} event indicating the updated allowance. This is not required by the EIP. See the note at the beginning of {ERC20}. NOTE: Does not update the allowance if the current allowance is the maximum `uint256`. Requirements: - `from` and `to` cannot be the zero address. - `from` must have a balance of at least `value`. - the caller must have allowance for ``from``'s tokens of at least `value`."
      },
      "transferirTokenPropiedad(address,uint256)": {
        "details": "Funcin para transferir tokens de propiedad a otra direccin",
        "params": {
          "cantidad": "Cantidad de tokens a transferir",
          "to": "Direccin del destinatario"
        }
      }
    },
    "title": "RealEstateToken",
    "version": 1
  },
  "userdoc": {
    "kind": "user",
    "methods": {},
    "version": 1
  },
  "storageLayout": {
    "storage": [
      {
        "astId": 159,
        "contract": "contracts/RealEstateToken.sol:RealEstateToken",
        "label": "_balances",
        "offset": 0,
        "slot": "0",
        "type": "t_mapping(t_address,t_uint256)"
      },
      {
        "astId": 165,
        "contract": "contracts/RealEstateToken.sol:RealEstateToken",
        "label": "_allowances",
        "offset": 0,
        "slot": "1",
        "type": "t_mapping(t_address,t_mapping(t_address,t_uint256))"
      },
      {
        "astId": 167,
        "contract": "contracts/RealEstateToken.sol:RealEstateToken",
        "label": "_totalSupply",
        "offset": 0,
        "slot": "2",
        "type": "t_uint256"
      },
      {
        "astId": 169,
        "contract": "contracts/RealEstateToken.sol:RealEstateToken",
        "label": "_name",
        "offset": 0,
        "slot": "3",
        "type": "t_string_storage"
      },
      {
        "astId": 171,
        "contract": "contracts/RealEstateToken.sol:RealEstateToken",
        "label": "_symbol",
        "offset": 0,
        "slot": "4",
        "type": "t_string_storage"
      },
      {
        "astId": 793,
        "contract": "contracts/RealEstateToken.sol:RealEstateToken",
        "label": "owner",
        "offset": 0,
        "slot": "5",
        "type": "t_address"
      },
      {
        "astId": 804,
        "contract": "contracts/RealEstateToken.sol:RealEstateToken",
        "label": "contadorPropiedades",
        "offset": 0,
        "slot": "6",
        "type": "t_uint256"
      },
      {
        "astId": 809,
        "contract": "contracts/RealEstateToken.sol:RealEstateToken",
        "label": "propiedades",
        "offset": 0,
        "slot": "7",
        "type": "t_mapping(t_uint256,t_struct(Propiedad)802_storage)"
      }
    ],
    "types": {
      "t_address": {
        "encoding": "inplace",
        "label": "address",
        "numberOfBytes": "20"
      },
      "t_bool": {
        "encoding": "inplace",
        "label": "bool",
        "numberOfBytes": "1"
      },
      "t_mapping(t_address,t_mapping(t_address,t_uint256))": {
        "encoding": "mapping",
        "key": "t_address",
        "label": "mapping(address => mapping(address => uint256))",
        "numberOfBytes": "32",
        "value": "t_mapping(t_address,t_uint256)"
      },
      "t_mapping(t_address,t_uint256)": {
        "encoding": "mapping",
        "key": "t_address",
        "label": "mapping(address => uint256)",
        "numberOfBytes": "32",
        "value": "t_uint256"
      },
      "t_mapping(t_uint256,t_struct(Propiedad)802_storage)": {
        "encoding": "mapping",
        "key": "t_uint256",
        "label": "mapping(uint256 => struct RealEstateToken.Propiedad)",
        "numberOfBytes": "32",
        "value": "t_struct(Propiedad)802_storage"
      },
      "t_string_storage": {
        "encoding": "bytes",
        "label": "string",
        "numberOfBytes": "32"
      },
      "t_struct(Propiedad)802_storage": {
        "encoding": "inplace",
        "label": "struct RealEstateToken.Propiedad",
        "members": [
          {
            "astId": 795,
            "contract": "contracts/RealEstateToken.sol:RealEstateToken",
            "label": "valor",
            "offset": 0,
            "slot": "0",
            "type": "t_uint256"
          },
          {
            "astId": 797,
            "contract": "contracts/RealEstateToken.sol:RealEstateToken",
            "label": "tokens",
            "offset": 0,
            "slot": "1",
            "type": "t_uint256"
          },
          {
            "astId": 799,
            "contract": "contracts/RealEstateToken.sol:RealEstateToken",
            "label": "propietario",
            "offset": 0,
            "slot": "2",
            "type": "t_address"
          },
          {
            "astId": 801,
            "contract": "contracts/RealEstateToken.sol:RealEstateToken",
            "label": "tokenizada",
            "offset": 20,
            "slot": "2",
            "type": "t_bool"
          }
        ],
        "numberOfBytes": "96"
      },
      "t_uint256": {
        "encoding": "inplace",
        "label": "uint256",
        "numberOfBytes": "32"
      }
    }
  }
}